:020000040800F2
:10000000580A0024390300085B490008A545000888
:1000100059490008D1050008AB5400080000000051
:100020000000000000000000000000007B4D000800
:100030003D0A000800000000B14900087D4D00089D
:100040005303000853030008530300085303000838
:100050005303000853030008530300085303000828
:10006000530300085303000853030008D505000894
:10007000E105000853030008530300085303000878
:1000800053030008530300085303000853030008F8
:100090005303000853030008530300083F0A0008F5
:1000A00053030008530300085303000853030008D8
:1000B00053030008530300085303000853030008C8
:1000C00053030008530300085303000853030008B8
:1000D000F54B0008530300085303000853030008BE
:1000E00053030008530300080000000053030008F6
:1000F0005303000853030008530300085303000888
:100100005303000853030008530300085303000877
:100110005303000853030008530300085303000867
:10012000ED050008F9050008530300085303000813
:100130005303000853030008530300085303000847
:1001400000000000000000000000000000000000AF
:100150005303000853030008530300085303000827
:100160005303000853030008530300085303000817
:100170005303000853030008530300085303000807
:1001800053030008530300085303000853030008F7
:1001900053030008530300085303000853030008E7
:1001A00053030008530300085303000853030008D7
:1001B00053030008530300085303000853030008C7
:1001C00053030008530300085303000853030008B7
:1001D00053030008530300085303000853030008A7
:1001E0005303000853030008530300085303000897
:1001F0005303000853030008530300085303000887
:100200005303000853030008530300085303000876
:100210005303000853030008530300085303000866
:1002200053030008530300085303000800000000B4
:1002300053030008530300080000000053030008A4
:100240005303000853030008530300085303000836
:100250005303000853030008530300085303000826
:100260005303000853030008530300085303000816
:100270005303000853030008530300080000000064
:100280005303000853030008530300080000000054
:10029000000000005303000800F002F800F03CF8F2
:1002A0000AA090E8000C82448344AAF10107DA45D1
:1002B00001D100F031F8AFF2090EBAE80F0013F0E7
:1002C000010F18BFFB1A43F00103184798530000B1
:1002D000B8530000103A24BF78C878C1FAD8520742
:1002E00024BF30C830C144BF04680C6070470000B0
:1002F0000023002400250026103A28BF78C1FBD82F
:10030000520728BF30C148BF0B6070471FB505F0CA
:1003100097F91FBD10B510BD00F058F81146FFF752
:10032000F5FF05F0D5F800F076F803B4FFF7F2FF1B
:1003300003BC00F07FF800000948804709480047E7
:10034000FEE7FEE7FEE7FEE7FEE7FEE7FEE7FEE785
:10035000FEE7FEE704480549054A064B70470000E2
:10036000614E00089902000858040024580A00242D
:1003700058060024580600244FF0000200B513462A
:1003800094469646203922BFA0E80C50A0E80C50B5
:10039000B1F12001BFF4F7AF090728BFA0E80C5066
:1003A00048BF0CC05DF804EB890028BF40F8042B5F
:1003B00008BF704748BF20F8022B11F0804F18BFCC
:1003C00000F8012B7047704770477047754600F082
:1003D0002BF8AE4605006946534620F007008546D7
:1003E00018B020B5FFF7B6FFBDE820404FF000067B
:1003F0004FF000074FF000084FF0000B21F007010D
:10040000AC46ACE8C009ACE8C009ACE8C009ACE84F
:10041000C0098D46704710B50446AFF300802046F2
:10042000BDE81040FFF781BF00487047F403002487
:100430007047000001491820ABBEFEE7260002000D
:1004400031B50122094D14032846214601F00AFD69
:100450000748012242F21073694603F01AFB00229A
:100460002146284601F0FEFC38BD00000004025879
:100470006C00002470B51E2001F06CFBC020FFF75B
:10048000DFFF1E2001F066FB1221112005F0B8F8F5
:100490000A2001F05FFB4121102005F0B1F81E2079
:1004A00001F058FB0021102005F0AAF81E2001F0F1
:1004B00051FB112005F07CF8122810D1314D002499
:1004C0000121284601F0C6FC0221284601F0C2FCA9
:1004D000642001F03FFB641CE4B2052CF0D3122130
:1004E000084605F08DF80A2001F034FB4221102067
:1004F00005F086F81E2001F02DFB0021102005F0EC
:100500007FF81E2001F026FB1521132005F078F856
:100510000A2001F01FFB4421102005F071F81E2075
:1005200001F018FB0021102005F06AF80A2001F004
:1005300011FB0E21002005F063F82021012005F0B9
:100540005FF800F021F800F01FF82021022005F0EC
:1005500057F8B021042005F053F83A21052005F0A2
:100560004FF8C321062005F04BF82B21072005F09A
:1005700047F80021082005F043F8BDE87040C0208E
:10058000FFF75EBF0010025838B501220D4DC220A2
:1005900014038DF800002146284601F063FC0A4848
:1005A000012242F21073694603F073FA07490822E8
:1005B000054803F095FB00222146284601F052FC35
:1005C00038BD0000000402586C0000241C00002408
:1005D000FEE70000014800F019BC000004030024FD
:1005E000014800F013BC00007C030024014800F027
:1005F0000DBC000014020024014800F007BC0000FC
:100600008C020024294A016891423AD0274A1832C4
:10061000914236D0254A3032914232D0234A483274
:1006200091422ED0214A603291422AD01F4A78321C
:10063000914226D01D4A9032914222D01B4AA832C4
:1006400091421ED01A4A91421BD0194A1832914247
:1006500017D0174A3032914213D0154A483291428E
:100660000FD0134A603291420BD0114A7832914236
:1006700007D00F4A9032914203D00D4AA8329142DE
:1006800011D1CAB21823103AB2FBF3F26FF3090189
:10069000032A02F00703074AD25CC26500D9091D8C
:1006A00081650846704721F0FF01F9E7100002401C
:1006B000100402404A56000830B5224A012301685E
:1006C0009142CAB21BD01F4C1434A14217D01D4C0A
:1006D0002834A14213D01B4C3C34A1420FD0194CFA
:1006E0005034A1420BD0174C6434A14207D0154CB2
:1006F0007834A14203D0134C8C34A1420CD1142184
:10070000114C083AB2FBF1F10F4A803201F01F059B
:1007100004EB8101AB4010E00C4D1824103A0D445D
:10072000B2FBF4F1A82D00D80831094A01F01F04EA
:1007300002EB8101064AA3408032603080E80E005F
:1007400030BD00000854025800580258F0FBFDBFAD
:100750000008024010B50279531E072B2DD8174C04
:100760000168A1421BD0154C1434A14217D0134C80
:100770002834A14213D0114C3C34A1420FD00F4C6D
:100780005034A1420BD00D4C6434A14207D00B4C25
:100790007834A14203D0094C8C34A14203D10849DA
:1007A000074C443102E00749064C443104EB820215
:1007B000C0E91B2101219940416710BD085402582E
:1007C000FC580258FC08024010B583694FF0C07411
:1007D000826A0146002053B1B3F5005F15D072B1B3
:1007E000012A0CD0022A0AD0032A09D104E01AB146
:1007F000012A06D0022A03D1C96AC90100D5012005
:1008000010BDC96AA142FAD010BD002AF7D0012A52
:10081000F2D0022AF3D0032AF3D010BD2DE9F04F15
:10082000804E804FDFF8FC911836DFF8F8A148378A
:100830000468856D0AF1300ADFF8ECB14C45DFF849
:10084000ECC1DFF8ECE16DD0B4426BD0544569D017
:10085000BC4267D0DFF8D081A8F11808444561D0C8
:100860005C455FD064455DD074455BD0DFF8C481E2
:10087000444557D0DFF8BC8108F11808444551D0F1
:10088000DFF8B08108F1300844454BD0DFF8A4818F
:1008900008F14808444545D0DFF8988108F1600820
:1008A00044453FD0DFF88C8108F17808444539D0C1
:1008B000DFF8808108F19008444533D0DFF8748177
:1008C00008F1A80844452DD0DFF86C81444529D0B3
:1008D000DFF8648108F11408444523D0DFF858811B
:1008E00008F1280844451DD0DFF84C8108F13C0888
:1008F000444517D0DFF8408108F15008444511D035
:10090000DFF8348108F1640844450BD0DFF8288112
:1009100008F17808444505D0DFF81C8108F18C08FF
:10092000444509D1D0E91948C4F80480C46E1CB10B
:10093000D0E91C48C4F8048004684C452ED0B44269
:100940002CD054452AD0BC4228D0374E183EB44251
:1009500024D05C4522D0644520D074451ED0354E4D
:10096000B4421BD0334E1836B44217D0314E303615
:10097000B44213D02F4E4836B4420FD02D4E6036BD
:10098000B4420BD02B4E7836B44207D0294E903665
:10099000B44203D0274EA836B44215D190F85C601B
:1009A0003F2406F01F06B440AC600468256825F4B7
:1009B000802525602EE09A600068C160BDE8F08F58
:1009C00099600068C260F9E71B4EB4421BD01A4E12
:1009D0001436B44217D0184E2836B44213D0164EEF
:1009E0003C36B4420FD0144E5036B4420BD0124EA7
:1009F0006436B44207D0104E7836B44203D00E4E5F
:100A00008C36B442DAD190F85C60012406F01F06FF
:100A1000B4406C60046863608368402B0368CFD186
:100A2000C9E700001000024088000240A000024018
:100A3000B800024010040240085402587047802059
:100A400001F0E5B872B6FEE7F0B5B3F5804F05D01A
:100A50006FF0704140F822100020F0BD91E838009E
:100A60008F898E6950F8221024013343054E44EAE1
:100A700005242343314043EA07430B4340F8223027
:100A8000EAE700000000F0CFF0B50A6850F8223025
:100A900023F0010340F822308C68082C2CD000266B
:100AA0004A68D1E903CE22434CEA060C01F1140353
:100AB00042EA0C0242EA0E0293E8F8501A4322433B
:100AC0000C682A43D1E90C35324350F824603A438C
:100AD00042EA0C02DFF840C042EA0E028F6B134379
:100AE0001D432F4326EA0C063E4340F824600A6B60
:100AF000B2F5801F02D007E04026D1E70A684AB16C
:100B0000026842F4801202600A681AB10268496BF6
:100B10000A4302600020F0BD7FFB3F00F0B58C6807
:100B200000EB8202D1E90036B1F80CE04FEA042C68
:100B3000134C0D8A43EA06130E7D67014CEA0E4CF6
:100B400043EA0C0304EB05552B438D6907EB06665E
:100B5000576833432B4307F040452B4353600268EB
:100B6000D2020BD5098A4268436804EB015122F492
:100B70007002114323F470030B4343600020F0BD67
:100B80000000F0FF2DE9F05F28B190F83510022940
:100B900004D0802141650120BDE8F09F904C904B2E
:100BA0000168183C18338E4ADFF83C92A1428D4C04
:100BB000DFF838E28E4FDFF83CB2DFF83CA28F4D11
:100BC0008F4E31D091422FD099422DD0A1422BD0BF
:100BD000494529D0714527D0B94225D0DFF810C248
:100BE0000CF1180C61451FD0DFF808C2ACF1600CA5
:100BF000614519D0DFF8FCC1ACF1480C614513D058
:100C0000DFF8F0C1ACF1300C61450DD0DFF8E4C184
:100C1000ACF1180C614507D0594505D0514503D0BA
:100C2000A94201D0B1422CD1DFF8B4C14FF0040881
:100C300080F83580ACF1180C61451DD091421BD075
:100C4000994219D0A14217D0494515D0714513D00A
:100C5000B94211D06648183081420DD065486038DD
:100C6000814209D063484838814205D06148303814
:100C7000814201D05F481838086820F00100086000
:100C8000ABE0D1F800C02CF00E08DFF854C1C1F879
:100C90000080ACF1180C0168614527D0914225D045
:100CA000994223D0A14221D049451FD071451DD082
:100CB000B9421BD0DFF838C10CF1180C614515D0D2
:100CC000DFF830C1ACF1600C61450FD0DFF824C112
:100CD000ACF1480C614509D0DFF818C1ACF1300C1B
:100CE000614503D0DFF80CC1ACF1180CD1F800C09D
:100CF0002CF0010CC1F800C0DFF8E4804FF0010CCB
:100D00000168A8F11808414546D0914244D0994263
:100D100042D0A14240D049453ED071453CD0B94275
:100D20003AD0334A1832914236D0324A603A914230
:100D300032D0304A483A91422ED02E4A303A91422F
:100D40002AD02C4A183A914226D0594524D05145F0
:100D500022D0A94220D0B1421ED02A4A91421BD0B3
:100D6000284A1432914217D0264A2832914213D091
:100D7000244A3C3291420FD0224A503291420BD049
:100D8000204A6432914207D01E4A7832914203D001
:100D90001C4A8C32914218D1016E0A6822F480728A
:100DA0000A6090F85C20816D02F01F020CFA02F2DA
:100DB0004A60D0E919124A60C16E31B10A6822F462
:100DC00080720A60D0E91C124A600022016D80F82E
:100DD00035C080F8342001B188470020DCE60000EF
:100DE0002800024058000240700002408800024083
:100DF000A00002407004024088040240A0040240A7
:100E0000B804024008540258406D70472DE9FC5F59
:100E10000446F74E0020DFF8D88300904FF41652B6
:100E2000F44808F11808A56DDFF8C493DFF8C0A3F3
:100E3000016809F1300920680AF1480AB1FBF2F1B2
:100E4000B04201912F68D5F800C0DFF8ACB335D0BF
:100E50004146884232D0484530D050452ED0584582
:100E60002CD0E5491831884228D0E34930318842F6
:100E700024D0E1494831884220D0E04988421DD041
:100E8000DE491831884219D0DC493031884215D00A
:100E9000DA494831884211D0DFF860E30EF1600E84
:100EA00070450BD0D54A7832904207D0D34B90335F
:100EB000984203D0D149A83188427DD194F85C2072
:100EC000082102F01F0201FA02F23A424AD0B0426F
:100ED00032D0404530D048452ED050452CD05845D2
:100EE0002AD0C54A1832904226D0C34A30329042A6
:100EF00022D0C14A483290421ED0C04A90421BD0F4
:100F0000BE4A1832904217D0BC4A3032904213D0B9
:100F1000BA4A483290420FD0B84A603290420BD061
:100F2000B64A7832904207D0B44A9032904203D009
:100F3000B24AA832904203D1026802F0040202E0F1
:100F4000026802F008026AB1026822F0040202603C
:100F500094F85C0000F01F008140A960606D40F0D3
:100F60000100606594F85C00012100F01F008140E1
:100F7000394240D02068B04234D0404532D0484554
:100F800030D050452ED058452CD09B4A1832904234
:100F900028D0994A3032904224D0974A4832904221
:100FA00020D0964A90421DD0944A1832904219D0CF
:100FB000924A3032904200E0AFE113D08F4A48327B
:100FC00090420FD08D4A603290420BD08B4A7832DB
:100FD000904207D0894A9032904203D0874AA83283
:100FE00090427DD1406910F0800F04D0A960606DFF
:100FF00040F00200606594F85C00042100F01F00DE
:10100000814039423ED02068B04232D0404530D095
:1010100048452ED050452CD058452AD0764A183213
:10102000904226D0744A3032904222D0724A4832DE
:1010300090421ED0714A90421BD0704A18329042A2
:1010400017D06E4A3032904213D06C4A48329042E8
:101050000FD06A4A603290420BD0684A7832904290
:1010600007D0664A9032904203D0644AA832904238
:101070004ED1006810F0020F04D0A960606D40F0FE
:101080000400606594F85C00102100F01F008140AE
:10109000394258D02068B04234D0404532D048451B
:1010A00030D050452ED058452CD0534A183290425B
:1010B00028D0514A3032904224D04F4A4832904290
:1010C00020D04E4A90421DD04C4A1832904219D03E
:1010D0004A4A3032904215D0484A4832904200E0A5
:1010E00014E00FD0454A603290420BD0434A783228
:1010F000904207D0414A9032904203D03F4AA832F2
:10110000904207D1006800F0080006E0006872E72E
:101110000068B7E7006800F00400A0B1A96020688B
:101120000168490304D50068000308D5A16C07E0F5
:101130000168C90503D4016821F008010160216C30
:1011400009B12046884794F85C00202100F01F0078
:101150008140394279D02068B04232D0404530D009
:1011600048452ED050452CD058452AD0224A183216
:10117000904226D0204A3032904222D01E4A483235
:1011800090421ED01D4A90421BD01C4A18329042F9
:1011900017D01A4A3032904213D0184A483290423F
:1011A0000FD0164A603290420BD0144A78329042E7
:1011B00007D0124A9032904203D0104AA83290428F
:1011C00003D1006800F0100002E0006800F00200A7
:1011D000B0B3A96094F835000428206801680FD0E6
:1011E00049037ED5006800032BD4616C2AE000001F
:1011F000100002401400002470000240100402405D
:1012000021F0160101602068416921F080014161EF
:10121000206C08B9A06C20B12068016821F0080199
:10122000016094F85C303F21012003F01F0300228D
:101230009940A96084F8350084F83420216D65E078
:1012400003E0E16B09B120468847606D00287DD03E
:10125000606DC00759D02068042184F83510B04271
:101260002BD0404529D0484527D0504525D058455A
:1012700023D09D49884220D09B49183188421CD0F8
:1012800099493031884218D09849884215D09749F9
:101290001831884211D09549303188420DD0934998
:1012A0004831884209D091496031884205D08F4940
:1012B0007831884201D08D499031016821F00101D7
:1012C000016020680099019A491C0091914202D85E
:1012D0000168C907F6D10068C00710D003200FE0ED
:1012E000FFE70168C905ACD403680121002223F09F
:1012F0001003036084F8351084F83420A1E701203E
:1013000084F83500002084F83400E16C00291DD0F9
:1013100002B02046BDE8F05F0847754988421DD0FD
:1013200073491431884219D071492831884215D047
:101330006F493C31884211D06D49503188420DD0FF
:101340006B496431884209D0694900E084E0783112
:10135000884203D066498C3188427DD194F85C8004
:101360000427016808F01F0807FA08F717EA0C0FAE
:10137000009746D04F0744D500980F04686003D506
:10138000C8033CD4A16CC1E7880638D42068B042B9
:101390002DD055496039884229D0484527D050453D
:1013A00025D0584523D05049884220D04E49183185
:1013B00088421CD04C493031884218D04B49884271
:1013C00015D04A491831884211D0484930318842F5
:1013D0000DD046494831884209D0704507D0904227
:1013E00005D0984203D04149A831884203D1016811
:1013F00021F0080102E0016821F004010160216C84
:1014000084E7022707FA08F717EA0C0F00974ED077
:101410008F074CD500980F04686003D5C80344D4E7
:10142000616C73E7880640D42068B0422FD02E4903
:10143000603988422BD0484529D0504527D058459F
:1014400025D02949884222D02749183188421ED008
:1014500025493031884200E044E018D023498842D1
:1014600015D022491831884211D0204930318842A4
:101470000DD01E494831884209D0704507D09042AE
:1014800005D0984203D01949A831884203D1016898
:1014900021F0140102E0016821F00A01016001213C
:1014A00084F83510002084F83400E16B2EE7082220
:1014B00002FA08F212EA0C0F14D0090712D50168DB
:1014C00021F00E01016094F85C100120002201F06F
:1014D0001F0100FA01F16960606584F8350084F845
:1014E000342012E7BDE8FC9F88000240100402404F
:1014F000085402582DE9F05F044600F0BFFC002CB0
:1015000007467DD0E34E022120684FF00308DFF844
:1015100088934FF00005DFF884A3B042DFF880B372
:1015200034D0DC4A1832904230D048452ED0504555
:101530002CD058452AD0DA4A1832904226D0D84AC0
:101540003032904222D0D64A483290421ED0D54AFC
:1015500090421BD0D34A1832904217D0D14A303231
:10156000904213D0CF4A483290420FD0CD4A6032D9
:1015700090420BD0CB4A7832904207D0C94A903281
:10158000904203D0C74AA83290427DD184F83510EA
:10159000B04284F834502ED0BE49183188422AD047
:1015A000484528D0504526D0584524D0BC4918314C
:1015B000884220D0BA49303188421CD0B8494831DD
:1015C000884218D0B749884215D0B64918318842A8
:1015D00011D0B449303188420DD0B24948318842E7
:1015E00009D0B0496031884205D0AE49783188428F
:1015F00001D0AC499031016821F00101016008E09F
:1016000027E100BF00F03AFCC01B052801D92021CA
:101610001CE120680068C007F4D104F108002168CB
:10162000D4E9053C8E4685C809681043D4E90728EB
:101630001F43636A38439C4F40EA0C001043394013
:1016400040EA0800042B40EA010003D1D4E90B1260
:1016500011430843954909686FF30F01B1F1005F29
:101660000FD36168A1F12902052A08D9163A032A85
:1016700005D9083A012A02D94F39032901D840F483
:101680008010CEF8000000E023E02068676A40691F
:10169000042F20F0070047EA00070DD1D4E90A0122
:1016A000074349B12046FFF78FF828B14020606515
:1016B000012184F83510CCE0206847612046FEF710
:1016C000A1FF94F85C203F2102F01F02914081604D
:1016D00054E0774A90421BD0754B1433984217D090
:1016E000734B2833984213D0714B3C3398420FD040
:1016F0006F4B503398420BD06D4B6433984207D0F8
:101700006B4B7833984203D0694B8C3398427DD130
:1017100084F8351084F83450664B0168A26801EAF9
:10172000030E402A73D0802A72D00022D4E90378B5
:10173000D4E9053142EAD70242EAD8085C4AD4E942
:10174000077C48EAD30848EAD10141EAD70152426E
:1017500041EA1C11142341EA0E0101602068104483
:10176000B0FBF3F08000E0652046FEF74BFF94F8F5
:101770005C20012102F01F02914041602068B042CC
:1017800057D044491831884253D0484551D050452C
:101790004FD058454DD042491831884249D0404930
:1017A0003031884245D03E494831884241D03D4998
:1017B00088423ED03B49183188423AD039493031CD
:1017C000884236D037494831884232D03549603175
:1017D00088422ED03349783188422AD0314990311D
:1017E000884226D02F49A831884222D030498842E9
:1017F0001FD02F49143188421BD02D4928318842EF
:1018000017D02B493C31884213D002E01DE017E08D
:1018100018E02749503188420BD02549643188426D
:1018200007D023497831884203D021498C3188423E
:1018300029D12046FEF740FFA06880280CD00CE09C
:10184000102273E74FF4804270E74021616584F80D
:1018500035800120BDE8F09F6560216E2079086029
:10186000D4E9190141606068401E072808D8204665
:10187000FEF770FFE06E0560D4E91C01416002E0F4
:10188000E566256765670120656584F835000020F9
:10189000E0E7000010000240400002405800024013
:1018A00070000240100402403F8010FE0010005CF7
:1018B000085402580F00FEFF2DE9F84F04008C4633
:1018C0004FF00000009014D094F83400012812D09A
:1018D00094F835500120002184F83400012D0CD0FB
:1018E000C00260650120009084F834100098BDE8C3
:1018F000F88F0120FBE70220F9E78C4D02262068D3
:1019000084F83560A8428A4D61658A4E8A4FDFF8B7
:101910002C82DFF82C92DFF82CA2DFF82CB226D034
:10192000A84224D0B04222D0B84220D040451ED098
:1019300048451CD050451AD0584518D08349884294
:1019400015D082491831884211D0804930318842FF
:101950000DD07E494831884209D07C4960318842A7
:1019600005D07A497831884201D0784990310168B0
:1019700021F00101016061462046FEF74FFF6B49EF
:10198000206888422CD0A8422AD0B04228D0B84241
:1019900026D0404524D0484522D0504520D0584537
:1019A0001ED06A4A90421BD0684A1832904217D023
:1019B000664A3032904213D0644A483290420FD087
:1019C000624A603290420BD0604A7832904207D02F
:1019D0005E4A9032904203D05C4AA83290420CD1C9
:1019E000026822F01E0242F016020260206C88B1EA
:1019F0002068026842F008020BE0026822F00E0242
:101A000042F00A020260206C20B12068026842F0B5
:101A100004020260206888424BD0A84249D0B042FC
:101A200047D0B84245D0404543D0484541D05045C5
:101A30003FD058453DD0454A90423AD0434A1832AB
:101A4000904236D0414A3032904232D03F4A4832FA
:101A500090422ED03D4A603290422AD03B4A7832A2
:101A6000904226D0394A9032904222D0374AA8324A
:101A700090421ED0364A90421BD0354A14329042D2
:101A800017D0334A2832904213D0314A3C32904228
:101A90000FD02F4A503290420BD02D4A64329042E0
:101AA00007D02B4A7832904203D0294A8C32904298
:101AB0000DD1206E0268D20303D5026842F4807211
:101AC0000260E06E18B1026842F480720260206821
:101AD000884226D0A84224D0B04222D0B84220D09A
:101AE00040451ED048451CD050451AD0584518D006
:101AF0001649884215D015491831884211D013492A
:101B0000303188420DD011494831884209D00F49FF
:101B10006031884205D00D497831884201D00B49A7
:101B20009031016841F001010160DFE610000240E0
:101B3000280002404000024058000240700002406D
:101B400088000240A0000240B80002401004024099
:101B50000854025870B5044600F090F90546601C20
:101B600002D004480078044400F088F9401BA042E9
:101B7000FAD370BD08000024F0B5B7B0142130A826
:101B8000FEF7FAFB1D480168002934D101210160EC
:101B9000C0216846FEF7F0FB002012904FF08071E4
:101BA0000446CDE90010684600F08AFA08B1FEF755
:101BB00049FF1348016841F4805101600068022523
:101BC00032AA00F4805035904FF68870CDE9300588
:101BD00003260C480C2782E8D00030A900F024F836
:101BE00032AA4CF2B370CDE93005074830A982E83B
:101BF000D00000F019F837B0F0BD0000000000245C
:101C0000D444025800100258000C025870474FF09C
:101C1000B04110B5D1F88820024203D0C1F8880045
:101C2000FFF7F4FF10BD00002DE9F84F03247D4DB0
:101C300000234FF001094FF0B04B4FF00F0AE9E0DD
:101C400009FA03F73A4076D00E7906F00306012E22
:101C500001D0022E18D1D0F808C04FEA430ECE684A
:101C600004FA0EF82CEA080C06FA0EF646EA0C0600
:101C70008660D0F804C00E792CEA070CC6F3001673
:101C80009E4046EA0C0646600E79F643B6070BD036
:101C9000C6684FEA43088F6804FA08FC26EA0C0677
:101CA00007FA08F73743C7600E7906F00306022EDD
:101CB00012D1DE080F694FEA437C00EB8606B64678
:101CC000366A4FEADC6C0AFA0CF807FA0CF726EAD7
:101CD00008063743CEF820700F7906684FEA4308AC
:101CE00007F0030704FA08FC07FA08F726EA0C06CF
:101CF000374307604E6816F4403F1CD04A4E3768A1
:101D000047F00207376036689F0706F00206009624
:101D100023F0030606F1B046B6463F0FD6F8086436
:101D2000DFF808810AFA07FC404526EA0C0603D1D1
:101D30004FF0000C41E06CE0DFF8F4C0604502D1E8
:101D40004FF0010C39E0DFF8ECC0604502D14FF0F4
:101D5000020C32E0DFF8E0C0604502D14FF0030C26
:101D60002BE0DFF8D8C0604502D14FF0040C24E02E
:101D7000DFF8CCC0604502D14FF0050C1DE0DFF864
:101D8000C4C0604502D14FF0060C16E0DFF8B8C0C1
:101D9000604502D14FF0070C0FE0DFF8B0C060459E
:101DA00002D14FF0080C08E0DFF8A4C0604502D172
:101DB0004FF0090C01E04FF00A0C0CFA07FC4CEA5A
:101DC000060CCEF808C44F68DBF80060FF0226EA74
:101DD000020600D516435F46CBF80060D1F804C078
:101DE000DBF804605FEA8C2C26EA020600D5164375
:101DF0007E606E684F6826EA0206BF0300D5164370
:101E00006E602E684F6826EA0206FF0300D516436F
:101E10002E605B1C0A6832FA03F67FF411AFBDE84E
:101E2000F88F000080000058F44402580000025867
:101E30000004025800080258000C02580010025812
:101E40000014025800180258001C025800200258C2
:101E500000240258426921EA02030A4043EA02418F
:101E6000816170470AB1816170470904FBE7000096
:101E700001480068000C70470010005C0148806851
:101E8000704700000800002402488168027811446D
:101E90008160704708000024032010B500F0D4F8DA
:101EA00000F012FF0F4A104914681368C4F30322AC
:101EB00003F00F038A5CC95C02F01F0201F01F01EE
:101EC000D0400A4A20FA01F1116009490860002057
:101ED00000F010F808B1012010BD00F079F80020E2
:101EE00010BD000018440258525600081800002483
:101EF0001400002470B50D4D04462878A0B14FF4AD
:101F00007A71B1FBF0F00A490968B1FBF0F001F019
:101F1000E1FF48B9102C07D200222146501E00F0E4
:101F200073F800206C6070BD012070BD08000024B3
:101F300014000024F0B5154C4378211D0A1D2360C0
:101F40000378F3B143680B60057BC67A817A437BE3
:101F50002D07847B45EA0665C77B90F809C0067AA1
:101F600090F800E045EAC14040EA834040EA44403E
:101F700040EA074040EA0C2040EA460040EA0E00F2
:101F800001E0002008601060F0BD000098ED00E066
:101F9000BFF35F8F044800210368034A23F48033B2
:101FA000036070321160704724ED00E0074A40F092
:101FB0000100064970321060086840F48030086003
:101FC000BFF34F8FBFF36F8F7047000024ED00E029
:101FD000054808B5016841F002010160006800F0A1
:101FE0000200009008BD0000F4440258002809DBFC
:101FF000410900F01F028900012001F1E021904019
:10200000C1F80001704700000E4BF0B41B680D468C
:10201000C3F30223C3F10706042E00D90426191DB9
:10202000072901D2002300E0DB1E012404FA06F197
:102030009C40491E2940641E994014402143F0BC35
:1020400003F034BA0CED00E0064900F0070210B5C9
:102050004FF6FF040868044B204040EA0220184372
:10206000086010BD0CED00E00000FA05134970B5E2
:102070000A68D243520705D5096801F00701814279
:1020800013D118E00A6822F0070202430A60FFF742
:10209000F5FE0A4D4FF47A760446083D07E000BF8E
:1020A000FFF7ECFE001BB04201D9012070BD28688B
:1020B000C0438004F4D4002070BD00000C480258D6
:1020C0002DE9FE4F0546DFF8E48350F8081B002495
:1020D000F64FC943019005F12800264608F124086F
:1020E000009008011DD4A86E50B1B0F5801F0CD02F
:1020F000B0F5001F0ED0B0F5401F1ED001240FE038
:10210000386840F40030386017E00198022102F08E
:1021100051FC03E00098022102F0DCFC04000CD02A
:1021200026462888C043C00523D4A86D05281ED2A2
:10213000DFE800F00C11161B1B00AA6ED8F8001087
:1021400021F440111143C8F80010EAE7386840F460
:102150000030386009E00198002102F02BFC03E018
:102160000098002102F0B6FC044674B100E001249E
:1021700026462888C043800528D4E86D80281ED0D4
:102180000CDC90B140280ED114E0AA6DD8F80010F4
:1021900021F007011143C8F80010EAE7C02813D066
:1021A000B0F5807F10D001240FE0386840F4003093
:1021B000386009E00198002102F0FCFB03E0009880
:1021C000002102F087FC04469CB126462888DFF8EF
:1021D000DC92C04309F12C0940052CD4D5F8A800A5
:1021E000B0F5800F20D00DDCA0B1B0F5001F0FD1ED
:1021F00015E0EA6DD8F8001021F4E0711143C8F839
:102200000010E3E7B0F5C00F13D0B0F5000F10D009
:1022100001240FE0386840F40030386009E001988C
:10222000002102F0C7FB03E00098002102F052FCFD
:1022300004467CB126462888C04300052DD4D5F835
:10224000AC00B0F1007F21D00EDCA8B1B0F1807FEE
:1022500010D116E0D5F8A820D9F8001021F46001BB
:102260001143C9F80010E6E7B0F1407F13D0B0F198
:10227000806F10D001240FE0386840F400303860DF
:1022800009E00198002102F095FB03E0009800218D
:1022900002F020FC044674B126462868C043800141
:1022A0001FD4E86CD8B110280FD0202812D03028C5
:1022B00015D0012414E0D5F8AC20D9F8001021F095
:1022C000E0611143C9F80010E7E7386840F40030D6
:1022D000386004E00198022102F06CFB044674B1FE
:1022E00026462888C043C0042BD4286EB0F5005F72
:1022F00020D00DDCA0B1B0F5805F0FD115E06B48A8
:10230000EA6C2030016821F0300111430160E8E7F8
:10231000B0F5405F13D0B0F5804F10D001240FE02E
:10232000386840F40030386009E00198002102F07C
:1023300041FB03E00098002102F0CCFB04468CB185
:1023400026462888C043800429D4686EB0F5403FF3
:1023500023D010DC08B3B0F5803F14D0B0F5003FB7
:102360000FD115E02A6ED8F8001021F4E041114396
:10237000C8F80010E5E7B0F5802F0ED0B0F5A02F1B
:102380000BD001240AE00198012102F013FB03E0C5
:102390000098012102F09EFB044694B1264628884D
:1023A000C04340042AD4D5F8B000B0F1405F23D038
:1023B00010DC08B3B0F1805F14D0B0F1005F0FD132
:1023C00015E06A6ED8F8001021F4E0211143C8F836
:1023D0000010E4E7B0F1804F0ED0B0F1A04F0BD069
:1023E00001240AE00198012102F0E4FA03E00098D8
:1023F000012102F06FFB044674B126462888C043D1
:1024000000041FD4286FD8B1B0F1805F0ED0B0F1B6
:10241000005F10D0012414E0D5F8B020D9F80010E6
:1024200021F0E0411143C9F80010E7E7386840F4B3
:102430000030386004E00198012102F0BBFA044644
:1024400074B126462868C043C0011ED4A86CD0B120
:1024500001280ED0022811D0032814D0012413E043
:102460002A6FD8F8001021F040511143C8F800102D
:10247000E8E7386840F40030386004E00198022151
:1024800002F098FA0446ACB126462868DFF81CB082
:10249000C043ABF11C0B400252D40548016841F423
:1024A00080710160FFF7EAFC824611E02C4402587B
:1024B00000480258FA48AA6C016821F00301114350
:1024C0000160E2E7FFF7DAFCA0EB0A00642835D8E8
:1024D000F4480068C005F5D58CBBDFF8C4A3B5F897
:1024E000B4100AF1240ADAF8000001F4407100F493
:1024F0004070884211D0DAF80010DAF8002021F498
:10250000407142F48032CAF80020DAF8002022F448
:102510008032CAF80020CAF80010D5F8B400B0F52F
:10252000807F1AD1FFF7AAFC029012E0FFF7A6FC09
:102530000299411A41F2883081420AD90324264681
:102540002878DFF85CA3C0430AF1080AC00721D04D
:102550003CE0DAF800008007E8D5D5F8B410C1F304
:102560000120032858460DD0016821F47C510160F8
:10257000B5F8B420DAF80010C2F30B021143CAF820
:102580000010DDE7C84A036802EA111223F47C5107
:102590001143ECE7E86F182816D005DCA0B1082835
:1025A00008D0102804D10AE020280DD028280BD00C
:1025B00001240AE00198012102F0FCF903E00098EF
:1025C000012102F087FA044664B126462878C04308
:1025D00080071ED4A86F062819D2DFE800F0160C79
:1025E00011161616EA6FDAF8001021F038011143BF
:1025F000CAF80010EAE70198012102F0DBF903E0D4
:102600000098012102F066FA04467CB100E0012442
:1026100026462878C04340071FD4D5F894000628E2
:1026200019D2DFE800F0160C11161616AA6FDAF8A8
:10263000001021F007011143CAF80010E9E70198E2
:10264000012102F0B7F903E00098012102F042FAFB
:102650000446A4B100E0012426462878C043800641
:102660002BD4D5F89000B0F1405F24D011DC10B32A
:10267000B0F1805F15D0B0F1005F10D116E0D5F851
:102680009420D9F8001021F007011143C9F8001077
:10269000E3E7B0F1804F0ED0B0F1A04F0BD0012492
:1026A0000AE00198002102F085F903E00098022178
:1026B00002F010FA044694B126462878C04340063A
:1026C0002BD4D5F89C00B0F5406F24D011DC10B3AA
:1026D000B0F5806F15D0B0F5006F10D116E0D5F8C9
:1026E0009020DAF8001021F0E0411143CAF8001000
:1026F000E3E7B0F5805F0ED0B0F5A05F0BD001240A
:102700000AE00198002102F055F903E00098022147
:1027100002F0E0F9044694B126462878C04300064A
:102720002BD4D5F8A000B0F5C04F24D011DC10B3E5
:10273000B0F5005F15D0B0F5804F10D116E0D5F898
:102740009C20D9F8001021F4E0511143C9F8001081
:10275000E3E7B0F5004F0ED0B0F5204F0BD00124C9
:102760000AE00198002102F025F903E00098022117
:1027700002F0B0F9044654B126462878C043000759
:102780001ED4D5F88400B0F5805F0AD00FE0D5F8EC
:10279000A020D9F8001021F460411143C9F80010BD
:1027A000EBE70098022102F095F900B10126D5F877
:1027B0008420DAF8001021F440511143CAF80010C7
:1027C0002878C043C00613D4D5F89800B0F5807FB0
:1027D00005D10098022102F07DF900B10126D5F85B
:1027E0009820D9F8001021F440711143C9F8001065
:1027F0002868C043000316D4D5F8A40038B1B0F55A
:10280000803F09D0B0F5003F0BD001240AE00198C9
:10281000002102F0CFF803E00098022102F05AF9FB
:1028200004468CB126462868C043400322D4D5F81C
:102830008800B0F5801F11D0B0F5001F13D0B0F59F
:10284000401F15D0012414E0D5F8A420D9F80010B9
:1028500021F440311143C9F80010E4E7386840F42E
:102860000030386004E00098012102F033F904469A
:102870005CB126462868C043C00323D4286DA8B1A4
:10288000B0F5803F17D001241BE0D5F88820DAF896
:10289000001021F440111143CAF80010EAE70000CB
:1028A0004C44025800480258CFFFFF00386840F4FB
:1028B0000030386004E00198022102F07BF8044601
:1028C000E4B126462868C043800005D40098022160
:1028D00002F000F900B101262868C04380031BD430
:1028E000D5F88000B0B1B0F5807F0FD0B0F5007F93
:1028F00010D0B0F5407F0DD001240CE05A482A6D6D
:10290000016821F4803111430160DBE7386840F44D
:1029100000303860ECB326462868C043C00207D4B4
:102920006A6FD8F8001021F000411143C8F8001078
:102930002868C043C00008D4D5F8B820DBF80010E0
:1029400021F480411143CBF800102868C043800275
:1029500007D4EA6ED8F8001021F080711143C8F84E
:1029600000102868C04340000CD4DBF8001021F4AC
:102970000041CBF80010DBF80010D5F8BC20114363
:10298000CBF800102868C04308D437486A6D016846
:1029900000E018E021F04051114301602868C04375
:1029A000000208D4D5F88C20DAF8001021F4400198
:1029B0001143CAF8001028790024C04300F0010038
:1029C00020430AD00FE0D5F88020DAF8001021F477
:1029D00040711143CAF800109EE70198002101F0F0
:1029E000E9FF00B106462879C04300F00200204309
:1029F00005D10198012101F0DDFF00B106462879DB
:102A0000C04300F00400204305D10198022101F0E9
:102A1000D1FF00B106462879C04300F008002043EA
:102A200005D10098002102F055F800B1064628793A
:102A3000C04300F01000204305D10098012102F0AE
:102A400049F800B106462879C04300F0200004434D
:102A500004D10098022102F03DF800B916B101201E
:102A6000BDE8FE8F0020FBE74C4402582DE9F05FE3
:102A700004000F467ED0DFF83882D8F8000000F05E
:102A80000F00B8420CD2D8F8001021F00F013943E2
:102A9000C8F80010D8F8000000F00F00B84269D163
:102AA0002078844D40070AD52069296801F070011B
:102AB000884204D9296821F07001014329602078F7
:102AC0007C4E361D00070AD56069316801F070013F
:102AD000884204D9316821F07001014331602078C7
:102AE000C0060AD5A069316801F4E061884204D9C2
:102AF000316821F4E061014331602078DFF8B4B13E
:102B000080060BF1080B0CD5E1695846DBF8002074
:102B100002F07002914204D9026822F070020A4366
:102B20000260207880070AD5E068296801F00F016B
:102B3000884204D9296821F00F01014329602078D7
:102B4000C0073ED05B49A2682868183920F470603D
:102B5000104328606068022818D0032819D009683B
:102B6000012819D0490700294ADADFF848A1AAF15B
:102B7000080A00E044E0DAF8002022F007020243ED
:102B8000CAF80020FFF77AF9814612E00968890344
:102B9000E9E709688901E6E7C905E4E7FFF76EF9A7
:102BA000A0EB090141F28830814202D90320BDE83F
:102BB000F09F6168DAF8000000F03800B0EBC10F58
:102BC000ECD1207880070AD5E068296801F00F0170
:102BD000884204D2296821F00F0101432960D8F806
:102BE0000010404601F00F01B9420BD9016821F0F5
:102BF0000F0139430160006800F00F00B84201D0B6
:102C00000120D4E7207840070AD52069296801F01F
:102C10007001884204D2296821F0700101432960C3
:102C2000207800070AD56069316801F07001884298
:102C300004D2316821F07001014331602078C00670
:102C40000AD5A069316801F4E061884204D2316894
:102C500021F4E06101433160207880060CD5E16900
:102C60005846DBF8002002F07002914204D202685C
:102C700022F070020A43026000F026F80E492A682A
:102C80002B68C2F3032203F00F038A5CC95C02F0D5
:102C90001F0201F01F01D040084A20FA01F1116023
:102CA0000749086007480068BDE8F05FFFF722B9F0
:102CB0000020005218440258525600081800002400
:102CC000140000240C000024454970B545480968EB
:102CD000434B103B11F0380208D00111082A03D0F1
:102CE000102A0BD0182A0BD0084670BD1968890627
:102CF000FBD51968C1F3C101C84070BD3A4870BD29
:102D00003749374D18310C1D24350A680968266883
:102D10002D6802F0030406F00102C1F30511C5F3AA
:102D2000CC0515FB02F200EE102AB8EE400AE9B31A
:102D30002F4ADFED2E0AB7EE001A6CB1DFED2D1A27
:102D4000012C01D0022C43D002EE101A1068F8EECC
:102D5000422A81EEA22A1EE01C68A40611D51B6837
:102D600001EE901A1168C3F3C103F8EE612AD8404E
:102D700001EE900AC1F30800F8EE611A81EEA22A72
:102D80000BE001EE901ADFED1C2A00BFF8EE611A8D
:102D9000106882EEA12AC0F3080001EE900AF8EE56
:102DA000611A40EE201A31EE810A00E015E022EEB1
:102DB000000A1068C0F34620401C00EE900AF8EEAE
:102DC000600A80EE201ABCEEC10A10EE100A70BD37
:102DD00001EE901ADFED092AD8E7002070BD00004F
:102DE000104402580090D00300366E0100000039F4
:102DF000304402580024744A0024744C001BB74B22
:102E00002DE9F05F04007DD0FF4F2078FE4D18378C
:102E1000DFF8F493103DC00748D0D9F800003968B6
:102E200000F03800102815D0182803D101F0030055
:102E300002280FD06068B0F5803F12D010B1B0F515
:102E4000A02F18D0286820F480302860286820F44B
:102E5000802009E02868800328D560680028D2D047
:102E600024E0286840F480302860606888B1FFF76B
:102E700005F8064609E0286840F480202860F0E75D
:102E8000FEF7FCFF801B64286FD828688003F7D505
:102E90000CE0FEF7F3FF064605E000BFFEF7EEFF8D
:102EA000801B6428F0D828688003F7D4207841F28A
:102EB0000308D54E0C3E800769D5D9F80000396863
:102EC00010F038000ED0182801D188070AD0E06829
:102ED00090B3296821F0190101432960FEF7CEFF64
:102EE000824631E02868400702D5E06800288AD091
:102EF000E168286820F0190008432860FEF7BEFF4B
:102F0000824607E0DFE000BFFEF7B8FFA0EB0A0053
:102F10000228B9D828684007F6D500BFFEF7A8FFF9
:102F200040451BD82069402812D0316821F47C31FB
:102F300041EA003030602AE018E000BFFEF79EFF53
:102F4000A0EB0A0002289FD828684007F6D5E5E7DD
:102F5000306820F47C3040F40030EBE7207C3168AE
:102F600021F0FE4141EA0060E4E70DE1286820F02D
:102F700001002860FEF782FF824605E0FEF77EFF33
:102F8000A0EB0A0002288DD828684007F6D42078E4
:102F9000C0065DD5D9F80000DFF86CB2396800F0E2
:102FA0003800ABF1040B082810D0182803D101F029
:102FB000030001280AD0E0690028286838D040F0D2
:102FC00080002860FEF75AFF824623E02868C0058B
:102FD00023D5E069802876D11FE0206A202821D0FF
:102FE000316821F0F84141EA8060306030E000BF94
:102FF00094F82010DBF8002022F07C5242EA0161B4
:10300000CBF8001024E000BFFEF738FFA0EB0A0069
:10301000022898D82868C005F6D5FEF729FF404554
:10302000E6D8DAE7306820F0F84040F08040DCE78E
:1030300020F080002860FEF721FF064605E000BF73
:10304000FEF71CFF801B02289DD82868C005F7D416
:103050002078000729D56C486169643000298046D2
:10306000016811D041F001010160FEF707FF06463B
:1030700005E000BFFEF702FF801B0228C9D8D8F880
:1030800000008007F6D510E021F001010160FEF795
:10309000F5FE064605E000BFFEF7F0FE801B0228A5
:1030A00072D8D8F800008007F6D42078800623D59F
:1030B000A0690028286810D040F480502860FEF7EE
:1030C000DDFE064605E036E1FEF7D8FE801B02284D
:1030D0005AD828688004F7D50EE020F48050286084
:1030E000FEF7CCFE064604E0FEF7C8FE801B022871
:1030F0004AD828688004F7D4207840074FD5DFF8F5
:103100000C81D8F8001041F48071C8F80010FEF767
:10311000B5FE064605E000BFFEF7B0FE801B642842
:1031200032D8D8F80000C005F6D5374EA068603612
:1031300001280AD008B1052813D0306820F001001A
:103140003060306820F0040002E0306840F0010098
:103150003060A06841F2883A90B1FEF78FFE804659
:103160000AE0306840F004003060EEE7FEF786FECB
:10317000A0EB0801514507D830688007F6D50EE06E
:10318000FEF77CFE804607E084E000BFFEF776FE97
:10319000A0EB080151457DD830688007F6D4606AFD
:1031A000B0B3DFF86480D9F8001008F120084FF6BA
:1031B000F87B08F10409C1F3C2010329A8F1040A4C
:1031C00069D00228286820F08070286003D0FEF7BC
:1031D00055FE044684E0FEF751FE064605E000BFBA
:1031E000FEF74CFE801B022877D828688001F7D4B0
:1031F000E26A40F2F331386854F8283F884340EAE5
:1032000002101843386004E0104402580048025885
:10321000B5E0217B434622894FF4FE0C208A4FF013
:10322000FE474902267D521E401EA1F50071C2F3E1
:1032300008088AB2761E0CEA004042EA08020243FD
:10324000504607EA06610A431A60DAF8002022F0C5
:103250000102CAF80020D9F80020266A22EA0B02EF
:1032600042EAC602C9F80020DAF80010A26921F08B
:103270000C011143CAF800100168E26921F0020153
:1032800011430160016841F480310160016841F43B
:10329000003101E021E027E00160016841F4802174
:1032A0000160016841F001010160286840F0807010
:1032B0002860FEF7E3FD044605E000BFFEF7DEFDF3
:1032C000001B022809D828688001F7D557E000BF05
:1032D000FEF7D4FD001B022802D90320BDE8F09FB1
:1032E00028688001F4D44AE039680128D8F8000041
:1032F00021D0A26A01F0030393421CD1E26AC1F318
:1033000005118A4217D1216BC0F30802491E8A4277
:1033100011D1616BC0F34622491E91420BD1A16BC2
:10332000C0F30642491E914205D1E16BC0F306602D
:10333000491E814201D00120D0E7A16C4E46D9F848
:103340000000C0F3CC00814219D0DAF800005546E5
:1033500020F00100CAF80000FEF790FD4FEA0007D8
:10336000FEF78CFDB842FBD0A26C306820EA0B005F
:1033700040EAC2003060286840F001002860002068
:10338000ACE770472DE9F047044600680021036967
:103390004269876894F8816000F130095FEA025C55
:1033A00003EA02050AD51A0708D5816941F40061CC
:1033B0008161204600F06CFBBDE8F08715F0600FDE
:1033C00008D1680706D5616F20468847216F2046DF
:1033D0008847012105F04100012805D1680703D481
:1033E000216F20468847012105F02200022806D1DE
:1033F000680704D4616F2046BDE8F04708470029FC
:10340000DAD128074FF001085BD52068816941F0C7
:10341000080181612068816941F0100181612068A3
:10342000816941F4006181612068016921F008012E
:1034300001612068806810F4404F20D023E0E068EC
:103440000F2806D92068616E006B0860606E001D51
:103450000FE0072806D9B9F80000616E0880606E99
:10346000801C06E02068616E90F830000870606E85
:10347000401C6066B4F86A00401EA4F86A00B4F804
:103480006A000028DBD1204601F0BAFB84F8818075
:10349000D4F8840018B12046FFF773FF8CE7052E9F
:1034A00007D0042E09D0032E86D1204600F0D6FC8A
:1034B00082E7204600F0D4FC7EE7204600F0E7FAE1
:1034C0007AE715F4587FE9D068060AD5D4F8840065
:1034D00040F00400C4F884002068816941F0400194
:1034E0008161A8050AD5D4F8840040F00100C4F831
:1034F00084002068816941F400718161E8050AD582
:10350000D4F8840040F00800C4F884002068816981
:1035100041F480718161A8060AD5D4F8840040F096
:103520008000C4F884002068816941F02001816135
:10353000D4F884000028B1D0206840F26B32C7F381
:1035400081310368032923F00101016020680169CA
:1035500021EA0201016102D084F881809BE72068A2
:10356000104D816821F440418160E06F50B10565E4
:10357000E06FFDF707FB28B1D4F8840040F040006D
:10358000C4F88400A06F002888D00565A06FFDF7FF
:10359000F9FA00288CD0D4F8840040F04000C4F838
:1035A000840009E7BD4C00082DE9F047040029D04C
:1035B000594A4FF000092068584B594D9042C4F8C1
:1035C000289006D0984204D0A84202D0E1680F2982
:1035D00018D8E1684FF0010AE76B0831C9080AEB17
:1035E00057167143904205D0984203D0A84201D0AB
:1035F000082907D8904203D0984201D0A84204D1AC
:10360000102902D90120BDE8F08794F8810020B983
:10361000204684F8809000F085F8022084F881002C
:103620002068016821F0010101602068A1698268B9
:10363000B1F1806F02F4F81110D16268B2F5800F19
:1036400001D01AB10AE0A26B22B107E0A26BB2F17D
:10365000805F03D1026842F48052026060684002D9
:1036600009D5E068072806D32068236D026822F494
:1036700080721A4303E02068026822F480720260BC
:10368000A66AE069E26B25683043E3680A431043A9
:103690001843A860D4E90D02D4E90581636A25695D
:1036A0001843D4F820C00A43266810432843A56D68
:1036B000D4E90172D4E9123140EA080040EA0C0072
:1036C00038430843104318432843F060606868B9E2
:1036D0002068816821F4C05141F400618160206854
:1036E000816821F4C06141F4806181602068016DCE
:1036F00021F0010101656068400206D52068626D15
:10370000C16821F000411143C160C4F8849084F87D
:1037100081A0002077E70000003001400038004021
:10372000003C00402DE9F04FB7B00646142130A808
:10373000FCF722FEC0216846FCF71EFE574F00240E
:1037400058494FF002083068083F544DDFF8509157
:10375000884269D1811418940020CDE90010684690
:10376000FEF7AEFC08B1FDF76DF9286840F4804023
:103770002860286800F480403590386840F00200E6
:103780003860386805214FF46042329400F002003E
:103790003590CDE93028CDE93381414830A9FEF795
:1037A00043FA414D4FF480694FF4006A3F4B05F1F5
:1037B0000C004FF0400C4FF4005B282780E8100EFF
:1037C000EC6128462C626C6285E88810FDF792FE59
:1037D00008B1FDF737F9364F2723344AB567183259
:1037E000AE631CC7324887E8100E3C617C61BC6147
:1037F0000C3FFDF77FFE08B1FDF724F90022F767C3
:1038000024201146BE63FEF7FFFB2420FEF7EEFBEB
:1038100001232348052130AD4FF48052CDE9338197
:1038200085E81C0030A933E02249884232D1811456
:1038300018940020CDE900106846FEF741FC08B15D
:10384000FDF700F9286840F400402860286800F47B
:1038500000403590386840F0020038603868062132
:1038600045464E4600F00200359018203090CDE9D4
:103870003184CDE9334130A94846FEF7D5F9072117
:1038800020203090CDE93154CDE9334130A9304684
:10389000FEF7CAF937B0BDE8F08F0000E8440258DF
:1038A00000040258003800401402002410040240B2
:1038B0008C020024003C00402DE9F84F04460068CB
:1038C00016468A460021984694F8802000F1300B75
:1038D0000091012A0CD0012784F88070FEF7CEFAFF
:1038E000814694F881000025012804D0022034E0AC
:1038F0000220BDE8F88FBAF1000F2DD066B3A168A1
:103900000420C4F864A0A4F8686084F88100C4F8B6
:103910008450A4F86A60E565A4F86050A4F8625089
:10392000B1F5C02F25676567206819D0C16821F4FB
:10393000C02141F48021C160206841686FF30F010C
:10394000314341602068016841F001010160606815
:10395000B0F5800F09D00DE0012084F88050C8E751
:10396000016821F400610160E6E72068016841F424
:1039700000710160E0680F2823D948F2080600BFF3
:10398000B4F86A0088B32068416931420BD0006BFB
:10399000616E0860606E001D6066B4F86A00401ECB
:1039A000A4F86A00ECE7FEF769FAA0EB09014145CB
:1039B00003D3B8F1FF3FE3D058E0B8F1000FDFD1F7
:1039C00054E007281FD841E020684069C0070DD0A7
:1039D000BBF80000616E0880606E801C6066B4F801
:1039E0006A00401EA4F86A000DE033E0FEF746FAD4
:1039F000A0EB0901414503D3B8F1FF3F03D035E007
:103A0000B8F1000F32D0B4F86A000028DCD121E010
:103A100020684169C9070CD090F83000616E0870C9
:103A2000606E401C6066B4F86A00401EA4F86A002C
:103A30000CE0FEF723FAA0EB0901414503D3B8F1EE
:103A4000FF3F03D012E0B8F1000F0FD0B4F86A00C6
:103A50000028DDD1204601F0D3F884F88170D4F835
:103A6000840084F8805080B1012042E7204601F0B4
:103A7000C7F8D4F8840084F8805040F48070C4F80B
:103A8000840084F88170032033E7009831E77047A1
:103A900070472DE9FC5F0446006817468A460021FE
:103AA000994694F8802000F1200B0191012A0DD055
:103AB0004FF0010884F88080FEF7E0F9064694F89C
:103AC00081000025012804D0022034E00220BDE856
:103AD000FC9FBAF1000F2DD067B3A1680320C4F892
:103AE0005CA0A4F8607084F88100C4F88450A4F845
:103AF00062706566A4F86850A4F86A50B1F5C02FEA
:103B000065672567206819D0C16821F4C02141F498
:103B10000031C160206841686FF30F013943416093
:103B20002068016841F0010101606068B0F5800F14
:103B300009D00DE0012084F88050C8E7016841F405
:103B400000610160E6E72068016841F400710160EE
:103B5000E0680F281CD820E02068416989070BD550
:103B6000E16D09680162E06D001DE065B4F8620076
:103B7000401EA4F862000BE0FEF780F9811B494566
:103B800003D3B9F1FF3F03D099E0B9F1000F30D072
:103B9000B4F862000028DFD177E007282DD870E064
:103BA0002068416989071CD5B4F8621001290BD936
:103BB000E16B49B1E16D09680162E06D001DE065EE
:103BC000B4F86200801E09E0E06D0188ABF80010D7
:103BD000E06D801CE065B4F86200401EA4F862004D
:103BE0000BE0FEF74BF9811B494503D3B9F1FF3FC9
:103BF00003D064E0B9F1000F61D0B4F8620000288E
:103C0000CED142E02068416989072ED5B4F8621010
:103C100003290CD9E16B402909D9E16D09680162DA
:103C2000E06D001DE065B4F86200001F1AE0B4F812
:103C3000621001290CD9E16B51B1E06D0188ABF83C
:103C40000010E06D801CE065B4F86200801E09E0A1
:103C5000E16D097880F82010E06D401CE065B4F853
:103C60006200401EA4F862000BE0FEF707F9811B1A
:103C7000494503D3B9F1FF3F03D020E0B9F1000F6C
:103C80001DD0B4F862000028BCD100224B460821A8
:103C90002046009601F04EF828B1D4F8840040F098
:103CA0002000C4F88400204600F0AAFF84F8818038
:103CB000D4F8840084F8805080B1012007E72046C2
:103CC00000F09EFFD4F8841084F8805041F4807195
:103CD000C4F8841084F881800320F8E60198F6E6A1
:103CE0002DE9F041044690F880001646012809D0DD
:103CF00094F881000127002584F88070012804D001
:103D0000022035E00220BDE8F08181B37EB3A268D5
:103D10000320E165A4F8606084F88100C4F8845051
:103D2000A4F86260656665672567A4F86850A4F822
:103D30006A50B2F5C02F20681DD0C16821F4C0219F
:103D400041F40031C0F80C10E1684FF480420F29B3
:103D500003D9A06F8069904209D1A06F07294FF461
:103D600000530DD9806998421BD0904219D0012090
:103D700084F88050C7E7016841F400610160E3E71F
:103D80008169994205D1B4F86210491C4908A4F828
:103D90006210806990420ED1B4F86200C01C8008A5
:103DA00007E00F2907D8904205D1B4F86200401C03
:103DB0004008A4F86200A06F25490164A16F25485E
:103DC000C863A16F2448C864A06F05652068816836
:103DD00021F400418160B4F862302268E16DA06F87
:103DE0002032FDF769FD58B1D4F88410384684F8C4
:103DF000805041F01001C4F8841084F8817082E78B
:103E0000A06FC069B0F5807F206841686FF30F0133
:103E100000D0314341602068816841F400418160F5
:103E20002068016941F4487101612068016841F02E
:103E3000010101606068B0F5800F04D1206801685D
:103E400041F400710160284684F880505BE700006F
:103E5000034D00080D4D0008D74C0008704770470F
:103E60007047000070B5040015460E4603D094F864
:103E7000450010B107E0012070BD002084F8440027
:103E8000204600F025F8206804F10801FCF7FCFD4D
:103E9000A26831462068FCF741FEE36A2946D4E96E
:103EA0000102FCF7D1FDA16801232068074A50F800
:103EB000215045F0010540F82150106840F00040C5
:103EC000106084F84530002070BD000000400052B2
:103ED000FDF752BE401EB0F1807F10B501D3012026
:103EE00010BD4FF0E02460610F21601701F0DEFA91
:103EF0000020A0610721216110BD0000F0B590F8FD
:103F00003C20012A3BD01F4E012480F83C40022275
:103F100080F83D2002681C4D5368B242D2F808C0B8
:103F200001D0AA4203D14F6823F470033B430F68CA
:103F300023F070031F4357600268B24213D0B2F1FE
:103F4000804F10D0114B9A420DD0114B9A420AD09B
:103F5000104B9A4207D0AA4205D00F4B9A4202D08A
:103F60000E4B9A4204D189682CF08003194391606A
:103F7000002180F83D4080F83C100846F0BD02204A
:103F8000F0BD0000000001400004014000040040BA
:103F900000080040000C00400018004000400140B4
:103FA00010B5040003D094F83D0010B107E00120E3
:103FB00010BD002084F83C00204600F023F80220C9
:103FC00084F83D002068211D00F0B8FF012084F82E
:103FD000480084F83E0084F83F0084F8400084F8EC
:103FE000410084F8420084F8430084F8440084F8D7
:103FF000450084F8460084F8470084F83D0000201E
:1040000010BD00002DE9F84F264906460068884299
:1040100046D12548016841F002010160006840274F
:10402000224C002500F00200009004F10C004FF03B
:1040300019084FF48069DFF878C04FF4006AA76070
:104040004FF4005B80E8200EBB022046C4E9075312
:104050006562C4E900C8FDF74DFA08B1FCF7F2FC4F
:10406000DFF850804FF01A0C114A08F10C01F4628D
:104070001832A663C8F800204FF48032404681E829
:10408000200EC0E90752C8E901C7C8F82450FDF75F
:1040900031FA08B1FCF7D6FCC6F83080C8F83860B1
:1040A000BDE8F88F00040040E844025804030024EF
:1040B000100002407C03002470B5044690F83C00D8
:1040C0000025012814D03A4B012684F83C600220D8
:1040D00084F83D0022689068184020F47F4090608A
:1040E000086870282FD010DC10F00F0F03D022E0EA
:1040F0004FF0020070BD4FEA2012072A1BD2DFE802
:1041000002F0535353534B394100B0F1101F4BD0C1
:1041100009DCB0F5805F0FD0B0F5005F1ED0B0F5C0
:10412000801F08D140E0A0F5801120393CD0102933
:104130003AD0202938D0012584F83D60002084F849
:104140003C00284670BD4A682068D1E9021300F09F
:10415000D9FF2068816841F0770109E04A6820684A
:10416000D1E9021300F0CEFF2068816841F480415C
:104170008160E1E7CA684968206801F073F9206846
:10418000502106E0CA684968206801F07CF920687F
:10419000602100F0C1FFCFE7CA684968206801F0DC
:1041A00061F920684021F4E7226801461046F0E7F3
:1041B00088FFCEFF7047000010B586B0044614217A
:1041C0006846FCF7D9F80D492068884214D10C489C
:1041D000016841F00201016000680021032200F043
:1041E0000200059002200092CDE90101CDE9031003
:1041F00004486946FDF718FD06B010BD00040040F4
:10420000E04402580004025870B5044690F83C009F
:1042100000260D4601280BD0012084F83C000C2A12
:104220004AD007DC82B1042A20D0082A06D131E026
:10423000022070BD102A53D0142A63D0012600201A
:1042400084F83C00304670BD206800F06FFF2068A5
:10425000816941F0080181612068816921F00401D0
:10426000816120682A698169114311E0206800F0AA
:10427000B1FF2068816941F4006181612068816932
:1042800021F48061816120682969826942EA012103
:104290008161D4E7206800F0E9FF2068C16941F03E
:1042A0000801C1612068C16921F00401C161206871
:1042B0002A69C169114311E0206801F023F82068E0
:1042C000C16941F40061C1612068C16921F4806164
:1042D000C16120682969C26942EA0121C161AEE772
:1042E000206801F04BF82068416D41F008014165FC
:1042F0002068416D21F00401416520682A69416D03
:10430000114311E0206801F073F82068416D41F419
:10431000006141652068416D21F48061416520683C
:104320002969426D42EA0121416588E710B5040020
:1043300003D094F83D0010B107E0012010BD00202B
:1043400084F83C00204600F022F8022084F83D006A
:104350002068211D00F0F2FD012084F8480084F857
:104360003E0084F83F0084F8400084F8410084F85F
:10437000420084F8430084F8440084F8450084F83F
:10438000460084F8470084F83D00002010BD7047C7
:10439000704770472DE9F0410D00174604464FF075
:1043A000000610D0042D15D0082D1AD00C2D1FD0CA
:1043B000102D24D094F84300022827D094F843000D
:1043C000012826D07DE094F83E0002281ED094F803
:1043D0003E00F5E794F83F00022817D094F83F001C
:1043E000EEE794F84000022810D094F84000E7E788
:1043F00094F84100022809D094F84100E0E794F8CD
:104400004200022802D094F84200D9E70220BDE819
:10441000F081A7B39BB356494FF00200554ADFF82D
:1044200058C155B1042D19D0082D29D00C2D38D0E4
:10443000102D48D084F8430047E084F83E00606ABD
:10444000C1633946606A0264606AC0F84CC0226881
:10445000606A3432FDF730FA88B938E084F83F00FA
:10446000A06AC1633946A06A0264A06AC0F84CC061
:104470002268A06A3832FDF71FFA00B92CE020E06C
:1044800084F84000E06AC1633946E06A0264E06A89
:10449000C0F84CC02268E06A3C32FDF70DFA80B9E2
:1044A0001FE084F84100206BC1633946206B026431
:1044B000206BC0F84CC02268206B4032FDF7FCF93D
:1044C000A0B10120A3E784F8420001264EE0206855
:1044D000C16841F400710DE02068C16841F4806159
:1044E00008E02068C16841F4006103E02068C16809
:1044F00041F48051C16020680122294600F080FD0E
:104500001E4920681E4A1F4B884209D0904207D09E
:10451000984205D01C4DA84202D01C4DA84203D1A0
:10452000456C45F4004545642068884212D0B0F1DE
:10453000804F0FD0164988420CD01649884209D0C6
:104540001549884206D0904204D01449884201D0CF
:10455000984207D18168124A1140062906D0B1F568
:10456000803F03D0016841F00101016030464EE711
:104570001B50000879500008B150000800000140AD
:104580000004014000400140004401400048014057
:104590000004004000080040000C004000180040EB
:1045A00007000100FEE77FB5002400940194029407
:1045B0000394FDF7EDFC1B218DF808108DF80C40DD
:1045C00001258DF809404FF0C0608DF80D400322A1
:1045D0008DF800508DF80A408DF80E408DF801409E
:1045E000019068468DF80B208DF80F50FDF7A2FC66
:1045F0004FF010508DF801501221019068468DF84F
:104600000810FDF797FC0420FDF7D0FC7FBD0000EB
:10461000194808B5016841F001010160016801F025
:1046200001010091016841F002010160006800226F
:10463000114600F0020000900B20FDF7E5FC0B2076
:10464000FDF7D4FC00220C201146FDF7DDFC0C2008
:10465000FDF7CCFC002238201146FDF7D5FC3820B0
:10466000FDF7C4FC002239201146FDF7CDFCBDE862
:1046700008403920FDF7BABCD844025870B58EB056
:104680001C2107A8FBF778FE1C216846FBF774FE87
:104690001B480021194E10231A4D0F2211240660C9
:1046A0009E02C0E90151C1601D02C0E9041381618D
:1046B000C161C0E90815C0E90A160163022541631A
:1046C00005268163C163016404200996CDE9075280
:1046D0000091CDE90C41CDE90A23CDE9012003A8E1
:1046E000069107A980E81C0005486A46FFF7BAFB57
:1046F000002801D072B6FEE70EB070BD0040005237
:10470000C801002404410052F0B587B01421684666
:10471000FBF732FE3348016841F010010160016887
:1047200001F010010591016841F08001016001680C
:1047300001F080010591016841F004010160016808
:1047400001F004010591016841F001010160016877
:1047500001F001010591016841F002010160016869
:1047600001F002010591016841F008010160006853
:1047700001221D4F062100F0080005903846FDF784
:1047800071FB01256946022606200024CDE90005BB
:10479000CDE902463846FDF747FA80204FF48811EC
:1047A0008DE8130011486946FDF73EFA0022032107
:1047B0001720FDF729FC1720FDF718FC0320694698
:1047C000CDE900050A48CDE90246FDF72DFA04209F
:1047D0006946CDE900050748CDE90246FDF724FA10
:1047E00007B0F0BDE044025800080258000002582B
:1047F000001002580004025870B5144807224FF404
:104800008005114E00212C01C0E9021201614FF018
:104810004053C0E90514C0E90731416222018162B9
:10482000C162C0E90D21C163016441648164C16456
:10483000016541658165C0E90065FEF7B5FE0028A8
:1048400001D072B6FEE770BD003800406C00002455
:1048500070B5134803224FF48004104D002123014A
:10486000C0E9021201611A01C0E90513C1610162C8
:1048700041628162C162C0E90D21C163016441648A
:104880008164C164016541658165C0E90054FEF73A
:104890008BFE002801D072B6FEE770BD003C0040E0
:1048A000F400002430B58FB000241C21009407A828
:1048B000019402940394049405940694FBF75CFD20
:1048C0002448012140F2E732214BC0E90241046152
:1048D0008461C0E90032FFF763FB08B172B6FEE7FE
:1048E0004FF4805000901B486946FFF7E5FB08B184
:1048F00072B6FEE71748FFF719FD08B172B6FEE77A
:10490000144804A904940694FFF7F8FA08B172B6A3
:10491000FEE760250F48CDE907540822099407A94E
:104920000B94FFF771FC08B172B6FEE70220079501
:104930000C2207A9CDE908400648FFF765FC08B13D
:1049400072B6FEE70348FFF737FC0FB030BD00003A
:10495000000400407C010024FEE7FEE708284FF039
:10496000010330B410D010490022541C21F8123039
:10497000A2B2102AF9D30222CA830B4A102330BCF8
:1049800001460A48FFF706BD074920390022541C9A
:1049900021F81230A2B2102AF9D30022CA83024AA7
:1049A0001023203AEBE700004C0000247C01002497
:1049B000704700002DE9F047454D044689464FF009
:1049C000000A2868C04380070AD0414E283E30685C
:1049D00020F080603060FDF751FA0746B04608E0ED
:1049E0000120BDE8F08700BFFDF748FAC01B022890
:1049F00067D8D8F800000001F6D4206829684FF481
:104A0000FE0721F47C313E0241EA00302860207A22
:104A1000A389B4F804C040022D4D2D495B1E227CB1
:104A2000ACF1010C1035091DA0F5007080B2521ECA
:104A3000CCF3080C07EA034340EA0C00184306EAEB
:104A40000262104328600868626920F0C0001043C9
:104A500008600A68A06922F0200202430A60281D4B
:104A60000A6822F010020A6002684FF6F873E469DF
:104A70009A4342EAC40202600868B9F1000F40F0AC
:104A800010020A6011D00868B9F1010F11D040F48A
:104A900000100860D8F80000444640F08060C8F874
:104AA0000000FDF7EBF905460DE0086840F4002032
:104AB000EFE740F48010ECE7FDF7E0F9401B022837
:104AC00001D903208DE720680001F5D5504688E71D
:104AD000284402582DE9F047454D044689464FF0D9
:104AE000000A2868C04380070AD0414E283E30683B
:104AF00020F080503060FDF7C1F90746B04608E06D
:104B00000120BDE8F08700BFFDF7B8F9C01B0228FF
:104B100067D8D8F800008000F6D4208829684FF4C0
:104B2000FE0721F07C713E0241EA00502860207AA5
:104B3000A389B4F804C040022D4D2D495B1E227C90
:104B4000ACF1010C1835091DA0F5007080B2521EA1
:104B5000CCF3080C07EA034340EA0C00184306EACA
:104B60000262104328600868626920F440601043C4
:104B700008600A68A06922F4007202430A60281DD6
:104B80000A6822F480720A6002684FF6F873E469DA
:104B90009A4342EAC40202600868B9F1000F40F487
:104BA00080720A6011D00868B9F1010F11D040F08D
:104BB00080700860D8F80000444640F08050C8F883
:104BC0000000FDF75BF905460DE0086840F4800041
:104BD000EFE740F40000ECE7FDF750F9401B022836
:104BE00001D903208DE720688000F5D5504688E77D
:104BF000284402580148FEF7C5BB00006C000024A1
:104C000010B5026840F26F335169946944F00804AA
:104C100094610268946944F0100494610268146815
:104C200024F001041460026814699C431461026852
:104C3000936823F44043936090F88120042A0CD0B9
:104C40008A060AD5D0F8842042F08002C0F8842079
:104C50000268936943F02003936190F88120032A4E
:104C60000CD04A060AD5D0F8842042F00402C0F8DD
:104C700084200268936943F0400393618A050AD552
:104C8000D0F8842042F00102C0F8842002689369C1
:104C900043F400739361C9050AD5D0F8841041F03C
:104CA0000801C0F8841001688A6942F480728A6140
:104CB0000021A0F86210A0F86A1010BD10B5806B3A
:104CC00000210122A0F86A10A0F8621080F881206B
:104CD000FEF757FB10BD10B5846BFCF795F8022862
:104CE0000ED02046FFF78CFFD4F88410012041F04D
:104CF0001001C4F8841084F881002046FEF741FBBF
:104D000010BD10B5806BFFF7AAF810BD10B5806B11
:104D100090F88110072909D0816FC969B1F5807FAA
:104D200005D00068016941F00801016110BDFFF77D
:104D300095F810BD2DE9F0411C4616460D46074674
:104D4000DDF818800AE000BFFDF798F8A0EB080036
:104D5000A04202D3601C01D00BE054B13868406916
:104D600035EA000007D00020B042EDD00020BDE8B9
:104D7000F0810320FBE70120F6E77047FDF784B8D8
:104D800070B59CB04C216846FBF7F6FA202113A8B9
:104D9000FBF7F2FA0220FDF769F92E4900252E48AB
:104DA0000A6822F001020A600A68026842F440427E
:104DB0000260026802F440421B9202689204FCD531
:104DC000264A136843F002031360126802F00202DD
:104DD0001B92026842F44042026002680A6842F094
:104DE00001020A60096801F001011B910168890450
:104DF000FCD5022000904024049401210391042258
:104E00000B923C23CDE90905CDE90C300FAB05260B
:104E10000E960C2183E8230068461295FDF7F0FFFB
:104E200008B172B6FEE708221A94CDE91624D30120
:104E300013AA3F200321CDE9184382E8230004216F
:104E400013A8FDF713FE002801D072B6FEE71CB0D0
:104E500070BD00002C04005818480258F444025851
:104E60002C48F0B52C4A016841F4700101601068CB
:104E700000F00F00072804D2106820F00F00C01DBA
:104E8000106026490020254C10340B68244D43F057
:104E900001030B6020600B682B400B60136803F06C
:104EA0000F03072B04D9136823F00F03DB1D1360D6
:104EB0001A4C1C4A18341C4B261D371D2060174CF9
:104EC0001A4D28343060261D3860371D23603B1D85
:104ED00035601C1D3A60251D2E1D1860331D226093
:104EE0002860326018600A680C4B114C22F4802252
:104EF00060330A60186020686FF30F00B0F1005F44
:104F000003D20C490120C1F8080143F2D2000A493A
:104F10000860F0BD88ED00E0002000520044025817
:104F20007FEDF6EA80020101000202020000FF01AB
:104F30000010005C00800051004000522DE9F04755
:104F4000274B4FF0804A274D02689842264E274F44
:104F5000274C09D0504507D0A84205D0B04203D015
:104F6000B84201D0A04205D1D1F804C022F07002AD
:104F70004CEA0202DFF87CC0DFF87C809842DFF860
:104F80007C900FD050450DD0A8420BD0B04209D034
:104F9000B84207D0A04205D0604503D0404501D0BB
:104FA000484503D1CD6822F440722A434D6922F06E
:104FB00080022A43026098428A68C2620A6882625A
:104FC00007D0A04205D0604503D0404501D04845F8
:104FD00001D10969016301214161BDE8F087000049
:104FE000000001400004004000080040000C0040A8
:104FF00000040140004001400044014000480140DD
:1050000010B5046A012301F01F018B409C43046228
:105010008A40016A1143016210BD10B5846B012101
:10502000626A824205D12177C069F8B984F83E10DE
:105030001CE0A26A824206D102222277C069A8B986
:1050400084F83F1012E0E26A824206D104222277FD
:10505000C06958B984F8401008E0226B824205D13B
:1050600008222277C06908B984F841102046FFF76A
:105070008FF90020207710BD10B5846B616A8142E2
:1050800001D101200DE0A16A814201D1022008E096
:10509000E16A814201D1042003E0216B814201D108
:1050A000082020772046FFF774F90020207710BDF4
:1050B00010B5846B0121626A824203D1217784F8A2
:1050C0003E1019E0A26A824204D10220207784F8BF
:1050D0003F1011E0E26A824204D10420207784F874
:1050E000401009E0226B824204D10820207784F826
:1050F000411001E084F83D102046FFF75BF80020E6
:10510000207710BD42EA032283680A4323F47F41DB
:105110000A43826070470000034B82681A400A43CA
:1051200042F00701816070478FFFCFFF2DE9F04FFC
:10513000026ADFF88880DFF8889022F00102DFF849
:1051400084A0DFF884B0214F0262DFF884C0066AD1
:105150004268836926F002060D68B8428C6803EA4B
:105160000C0323F0030344EA060445EA030507D0D1
:10517000404505D0484503D0504501D0584505D19C
:10518000CB6824F00804234323F00404B84207D07A
:10519000404505D0484503D0504501D0584505D17C
:1051A00022F44076D1E9053233431A4342608561E7
:1051B000496841630462BDE8F08F000000040140CB
:1051C000004001400044014000480140000001400F
:1051D0008FFFFEFFF0B5026A1E4E1F4C22F0100238
:1051E000DFF878E00262056A4368826925F02005ED
:1051F000D1F808C0A0420F6802EA060222F4407209
:1052000045EA0C1542EA072201D0704506D1CE6866
:1052100025F0800545EA061525F04005A0420AD094
:10522000704508D00E4CA04205D00E4CA04202D0D2
:105230000D4CA04207D1D1E9054623F4406343EA6F
:10524000840343EA8603436082614968816305629F
:10525000F0BD0000FF8FFFFE000001400004014090
:10526000004001400044014000480140F0B5026A9E
:105270001E4F1F4E22F48072DFF878E00262056A4A
:105280004368C26925F40075D1F808C0B0420C68C3
:1052900002EA070222F0030245EA0C2544EA02046E
:1052A00001D0704506D1CF6825F4006242EA07229A
:1052B00022F48065B0420AD0704508D00E4A904270
:1052C00005D00E4A904202D00D4A904207D123F4F5
:1052D0004052D1E9053642EA031242EA061343601E
:1052E000C4614968C1630562F0BD00008FFFFEFF25
:1052F0000000014000040140004001400044014022
:1053000000480140F0B5026A174B164F22F4805254
:1053100098420262046A4268C36924F400548E68A9
:105320000D6803EA070323F4407344EA063443EAB2
:1053300005230BD00D4DA84208D00D4DA84205D035
:105340000C4DA84202D00C4DA84204D14D6922F464
:10535000804242EA85124260C36149680164046286
:10536000F0BD0000FF8FFFFE00000140000401407F
:10537000004001400044014000480140F0B5026A8D
:10538000DFF854C022F480320262056A4268446D3C
:1053900025F400350E896045104F0B6804EA0704B8
:1053A00045EA064543EA04030BD00D4CA04208D061
:1053B0000C4CA04205D00C4CA04202D00B4CA04299
:1053C00004D14C6922F4803242EA042242604365EF
:1053D000496881650562F0BD000001408FFFFEFF56
:1053E00000040140004001400044014000480140E9
:1053F000F0B5026ADFF854C022F480120262046A37
:105400004268436D24F400140E896045104F0D6806
:1054100003EA070344EA065443EA05230BD00D4D83
:10542000A84208D00C4DA84205D00C4DA84202D08D
:105430000B4DA84204D14D6922F4802242EA852214
:10544000426043654968C1650462F0BD00000140E7
:10545000FF8FFFFE00040140004001400044014076
:105460000048014010B5036A046A23F00A0324F0DF
:105470000104046284690B4324F0F00141EA021143
:105480008161036210BD10B5036A23F0100303624B
:105490008369046A23F4704324F0A00443EA0232CF
:1054A000826144EA0111016210BDFEE7090700288C
:1054B0004FEA116104DB00F1E02080F8001470472E
:1054C00000F00F0000F1E02080F8141D704700008C
:1054D000FFF769F8334900200A68920311D4BFF33B
:1054E0004F8FBFF36F8F304A1060BFF34F8FBFF302
:1054F0006F8F0A6842F400320A60BFF34F8FBFF328
:105500006F8F0A68D20322D4264A70321060BFF32C
:105510004F8F101F43F6FF740068234D1035C0F302
:105520004E32C0F3C90304EA4216184646EA8077B1
:105530002F60401EFAD2521EF5D2BFF34F8F08687B
:1055400040F480300860BFF34F8FBFF36F8FFCF7DC
:10555000A3FCFFF715FCFFF7D7F8FFF759F8FFF7A3
:105560008DF8FFF79FF9FFF747F9FFF771F9FAF7A1
:1055700081FF0E4801220421FCF774FC4FF4FA75F8
:1055800001240820FFF7EAF90C20FFF7E7F964206F
:10559000FCF7E0FA641CA4B2092CF2D32846FCF70D
:1055A000D9FAEDE714ED00E050EF00E000040258F6
:1055B000F8B50122104E0446150330462946FCF783
:1055C00051FC44F0400042F210748DF800000122BA
:1055D0000A4823466946FEF75CFA0848012223463A
:1055E0006946FEF769F9002229463046FCF73AFC85
:1055F0009DF80000F8BD0000000402586C00002473
:1056000073B501220C4D140328462146FCF72AFCF1
:1056100042F210760948012233466946FEF739FA0C
:105620000648012201A93346FEF733FA002221463B
:105630002846FCF717FC7CBD000402586C000024CF
:105640004FF04070E1EE100A704700061016000699
:105650001016000000000102030401020304060703
:105660000809000084560008000000241C00000007
:10567000D4020008A05600081C0000243C0A0000C8
:10568000F00200080000000000000000010000001F
:1056900010000000000000000090D0030090D00334
:040000050800029954
:00000001FF
